{
  "contractName": "DrugProcurement",
  "abi": [
    {
      "inputs": [],
      "stateMutability": "nonpayable",
      "type": "constructor"
    },
    {
      "anonymous": false,
      "inputs": [
        {
          "indexed": false,
          "internalType": "uint256",
          "name": "drugId",
          "type": "uint256"
        },
        {
          "indexed": false,
          "internalType": "string",
          "name": "name",
          "type": "string"
        },
        {
          "indexed": false,
          "internalType": "uint256",
          "name": "quantity",
          "type": "uint256"
        },
        {
          "indexed": false,
          "internalType": "uint256",
          "name": "price",
          "type": "uint256"
        },
        {
          "indexed": false,
          "internalType": "address",
          "name": "supplier",
          "type": "address"
        }
      ],
      "name": "DrugAdded",
      "type": "event"
    },
    {
      "anonymous": false,
      "inputs": [
        {
          "indexed": false,
          "internalType": "uint256",
          "name": "purchaseId",
          "type": "uint256"
        },
        {
          "indexed": false,
          "internalType": "uint256",
          "name": "drugId",
          "type": "uint256"
        },
        {
          "indexed": false,
          "internalType": "uint256",
          "name": "quantity",
          "type": "uint256"
        },
        {
          "indexed": false,
          "internalType": "address",
          "name": "buyer",
          "type": "address"
        }
      ],
      "name": "DrugPurchased",
      "type": "event"
    },
    {
      "anonymous": false,
      "inputs": [
        {
          "indexed": false,
          "internalType": "uint256",
          "name": "drugId",
          "type": "uint256"
        },
        {
          "indexed": false,
          "internalType": "enum DrugProcurement.DrugStatus",
          "name": "status",
          "type": "uint8"
        }
      ],
      "name": "DrugStatusUpdated",
      "type": "event"
    },
    {
      "inputs": [
        {
          "internalType": "uint256",
          "name": "",
          "type": "uint256"
        }
      ],
      "name": "drugs",
      "outputs": [
        {
          "internalType": "uint256",
          "name": "id",
          "type": "uint256"
        },
        {
          "internalType": "string",
          "name": "name",
          "type": "string"
        },
        {
          "internalType": "uint256",
          "name": "quantity",
          "type": "uint256"
        },
        {
          "internalType": "uint256",
          "name": "price",
          "type": "uint256"
        },
        {
          "internalType": "address",
          "name": "supplier",
          "type": "address"
        },
        {
          "internalType": "enum DrugProcurement.DrugStatus",
          "name": "status",
          "type": "uint8"
        }
      ],
      "stateMutability": "view",
      "type": "function",
      "constant": true
    },
    {
      "inputs": [],
      "name": "owner",
      "outputs": [
        {
          "internalType": "address",
          "name": "",
          "type": "address"
        }
      ],
      "stateMutability": "view",
      "type": "function",
      "constant": true
    },
    {
      "inputs": [
        {
          "internalType": "uint256",
          "name": "",
          "type": "uint256"
        }
      ],
      "name": "purchases",
      "outputs": [
        {
          "internalType": "uint256",
          "name": "drugId",
          "type": "uint256"
        },
        {
          "internalType": "uint256",
          "name": "quantity",
          "type": "uint256"
        },
        {
          "internalType": "address",
          "name": "buyer",
          "type": "address"
        }
      ],
      "stateMutability": "view",
      "type": "function",
      "constant": true
    },
    {
      "inputs": [
        {
          "internalType": "address",
          "name": "",
          "type": "address"
        },
        {
          "internalType": "uint256",
          "name": "",
          "type": "uint256"
        }
      ],
      "name": "supplierDrugs",
      "outputs": [
        {
          "internalType": "uint256",
          "name": "",
          "type": "uint256"
        }
      ],
      "stateMutability": "view",
      "type": "function",
      "constant": true
    },
    {
      "inputs": [],
      "name": "totalDrugs",
      "outputs": [
        {
          "internalType": "uint256",
          "name": "",
          "type": "uint256"
        }
      ],
      "stateMutability": "view",
      "type": "function",
      "constant": true
    },
    {
      "inputs": [],
      "name": "totalPurchases",
      "outputs": [
        {
          "internalType": "uint256",
          "name": "",
          "type": "uint256"
        }
      ],
      "stateMutability": "view",
      "type": "function",
      "constant": true
    },
    {
      "inputs": [
        {
          "internalType": "address",
          "name": "",
          "type": "address"
        },
        {
          "internalType": "uint256",
          "name": "",
          "type": "uint256"
        }
      ],
      "name": "userPurchases",
      "outputs": [
        {
          "internalType": "uint256",
          "name": "",
          "type": "uint256"
        }
      ],
      "stateMutability": "view",
      "type": "function",
      "constant": true
    },
    {
      "inputs": [
        {
          "internalType": "string",
          "name": "_name",
          "type": "string"
        },
        {
          "internalType": "uint256",
          "name": "_quantity",
          "type": "uint256"
        },
        {
          "internalType": "uint256",
          "name": "_price",
          "type": "uint256"
        }
      ],
      "name": "addDrug",
      "outputs": [],
      "stateMutability": "nonpayable",
      "type": "function"
    },
    {
      "inputs": [
        {
          "internalType": "uint256",
          "name": "_drugId",
          "type": "uint256"
        }
      ],
      "name": "toggleDrugStatus",
      "outputs": [],
      "stateMutability": "nonpayable",
      "type": "function"
    },
    {
      "inputs": [
        {
          "internalType": "uint256",
          "name": "_drugId",
          "type": "uint256"
        },
        {
          "internalType": "uint256",
          "name": "_quantity",
          "type": "uint256"
        }
      ],
      "name": "buyDrug",
      "outputs": [],
      "stateMutability": "payable",
      "type": "function",
      "payable": true
    },
    {
      "inputs": [
        {
          "internalType": "uint256",
          "name": "_drugId",
          "type": "uint256"
        },
        {
          "internalType": "uint256",
          "name": "_newQuantity",
          "type": "uint256"
        }
      ],
      "name": "updateDrugQuantity",
      "outputs": [],
      "stateMutability": "nonpayable",
      "type": "function"
    },
    {
      "inputs": [
        {
          "internalType": "address",
          "name": "_user",
          "type": "address"
        }
      ],
      "name": "getUserPurchases",
      "outputs": [
        {
          "internalType": "uint256[]",
          "name": "",
          "type": "uint256[]"
        }
      ],
      "stateMutability": "view",
      "type": "function",
      "constant": true
    },
    {
      "inputs": [
        {
          "internalType": "address",
          "name": "_user",
          "type": "address"
        }
      ],
      "name": "getUserSupplies",
      "outputs": [
        {
          "internalType": "uint256[]",
          "name": "",
          "type": "uint256[]"
        }
      ],
      "stateMutability": "view",
      "type": "function",
      "constant": true
    }
  ],
  "bytecode": "0x608060405234801561001057600080fd5b50600080546001600160a01b0319163317815560018190556002556111048061003a6000396000f3fe6080604052600436106100d25760003560e01c80638da5cb5b1161007f578063c6e5d8f611610059578063c6e5d8f614610266578063c933e98014610286578063cf2c033414610299578063fca5e61e146102b957600080fd5b80638da5cb5b146101e1578063be62254614610219578063beaf46271461023957600080fd5b80635962a941116100b05780635962a941146101425780636762f6b3146101585780638392fe311461017857600080fd5b80631685a5ac146100d75780632095a0e4146101005780634745f04014610122575b600080fd5b3480156100e357600080fd5b506100ed60015481565b6040519081526020015b60405180910390f35b34801561010c57600080fd5b5061012061011b366004610e72565b6102eb565b005b34801561012e57600080fd5b5061012061013d366004610d95565b61046b565b34801561014e57600080fd5b506100ed60025481565b34801561016457600080fd5b506100ed610173366004610d6b565b610611565b34801561018457600080fd5b506101bd610193366004610e59565b6005602052600090815260409020805460018201546002909201549091906001600160a01b031683565b6040805193845260208401929092526001600160a01b0316908201526060016100f7565b3480156101ed57600080fd5b50600054610201906001600160a01b031681565b6040516001600160a01b0390911681526020016100f7565b34801561022557600080fd5b50610120610234366004610e59565b610642565b34801561024557600080fd5b50610259610254366004610d49565b6107e7565b6040516100f79190610f03565b34801561027257600080fd5b50610259610281366004610d49565b610853565b610120610294366004610e72565b6108bd565b3480156102a557600080fd5b506100ed6102b4366004610d6b565b610baa565b3480156102c557600080fd5b506102d96102d4366004610e59565b610bc6565b6040516100f796959493929190610f9a565b6000546001600160a01b031633146103705760405162461bcd60e51b815260206004820152602f60248201527f4f6e6c792074686520636f6e7472616374206f776e65722063616e207065726660448201527f6f726d207468697320616374696f6e000000000000000000000000000000000060648201526084015b60405180910390fd5b6001548211156103c25760405162461bcd60e51b815260206004820152600f60248201527f496e76616c6964206472756720494400000000000000000000000000000000006044820152606401610367565b6000828152600360205260408120906004820154600160a01b900460ff1660018111156103f1576103f16110a2565b146104645760405162461bcd60e51b815260206004820152602e60248201527f43616e6e6f7420757064617465207175616e7469747920666f7220612064727560448201527f67206e6f7420666f722073616c650000000000000000000000000000000000006064820152608401610367565b6002015550565b600082116104bb5760405162461bcd60e51b815260206004820152601f60248201527f5175616e74697479206d7573742062652067726561746572207468616e2030006044820152606401610367565b6000811161050b5760405162461bcd60e51b815260206004820152601c60248201527f5072696365206d7573742062652067726561746572207468616e2030000000006044820152606401610367565b6001805490600061051b83611071565b90915550506001805460008181526003602090815260409091209182558551919261054c9290840191870190610c94565b50828160020160008282546105619190610fe8565b909155505060038101829055600480820180547fffffffffffffffffffffff000000000000000000000000000000000000000000163360ff60a01b1981169190911790915560008181526020928352604080822060018054825480830184559285529590932001939093555491517fdab68bcf36d669339e88038655bc20d5719efcb16665403cc2d2c36f19b2c1a69261060392909188918891889190610f5b565b60405180910390a150505050565b6004602052816000526040600020818154811061062d57600080fd5b90600052602060002001600091509150505481565b6000546001600160a01b031633146106c25760405162461bcd60e51b815260206004820152602f60248201527f4f6e6c792074686520636f6e7472616374206f776e65722063616e207065726660448201527f6f726d207468697320616374696f6e00000000000000000000000000000000006064820152608401610367565b6001548111156107145760405162461bcd60e51b815260206004820152600f60248201527f496e76616c6964206472756720494400000000000000000000000000000000006044820152606401610367565b6000818152600360205260408120906004820154600160a01b900460ff166001811115610743576107436110a2565b14156107635760048101805460ff60a01b1916600160a01b17905561079b565b60016004820154600160a01b900460ff166001811115610785576107856110a2565b141561079b5760048101805460ff60a01b191690555b60048101546040517ff805aaa32f63549f772fadf706d780b1232fe4266817333c630891723c21079e916107db918591600160a01b900460ff1690610f47565b60405180910390a15050565b6001600160a01b03811660009081526004602090815260409182902080548351818402810184019094528084526060939283018282801561084757602002820191906000526020600020905b815481526020019060010190808311610833575b50505050509050919050565b6001600160a01b03811660009081526006602090815260409182902080548351818402810184019094528084526060939283018282801561084757602002820191906000526020600020908154815260200190600101908083116108335750505050509050919050565b6000811161090d5760405162461bcd60e51b815260206004820152601f60248201527f5175616e74697479206d7573742062652067726561746572207468616e2030006044820152606401610367565b60015482111561095f5760405162461bcd60e51b815260206004820152600f60248201527f496e76616c6964206472756720494400000000000000000000000000000000006044820152606401610367565b6000828152600360205260408120906004820154600160a01b900460ff16600181111561098e5761098e6110a2565b146109db5760405162461bcd60e51b815260206004820152601460248201527f44727567206973206e6f7420666f722073616c650000000000000000000000006044820152606401610367565b8181600201541015610a2f5760405162461bcd60e51b815260206004820152601f60248201527f496e73756666696369656e74207175616e7469747920617661696c61626c65006044820152606401610367565b6003810154610a3e9083611000565b3414610a8c5760405162461bcd60e51b815260206004820152601860248201527f496e636f7272656374207061796d656e7420616d6f756e7400000000000000006044820152606401610367565b60028054906000610a9c83611071565b90915550506002805460009081526005602052604081208581556001810185905580830180547fffffffffffffffffffffffff000000000000000000000000000000000000000016331790559183018054859290610afb90849061101f565b909155505033600090815260066020908152604080832060025481546001810183559185529284200191909155600484015490516001600160a01b0391909116913480156108fc02929091818181858888f19350505050158015610b63573d6000803e3d6000fd5b50600254604080519182526020820186905281018490523360608201527fa550c63f07a6a05a7fc15ff0be868687c921bcbd671a5414604914ab4c77e18490608001610603565b6006602052816000526040600020818154811061062d57600080fd5b60036020526000908152604090208054600182018054919291610be890611036565b80601f0160208091040260200160405190810160405280929190818152602001828054610c1490611036565b8015610c615780601f10610c3657610100808354040283529160200191610c61565b820191906000526020600020905b815481529060010190602001808311610c4457829003601f168201915b5050505060028301546003840154600490940154929390929091506001600160a01b03811690600160a01b900460ff1686565b828054610ca090611036565b90600052602060002090601f016020900481019282610cc25760008555610d08565b82601f10610cdb57805160ff1916838001178555610d08565b82800160010185558215610d08579182015b82811115610d08578251825591602001919060010190610ced565b50610d14929150610d18565b5090565b5b80821115610d145760008155600101610d19565b80356001600160a01b0381168114610d4457600080fd5b919050565b600060208284031215610d5b57600080fd5b610d6482610d2d565b9392505050565b60008060408385031215610d7e57600080fd5b610d8783610d2d565b946020939093013593505050565b600080600060608486031215610daa57600080fd5b833567ffffffffffffffff80821115610dc257600080fd5b818601915086601f830112610dd657600080fd5b813581811115610de857610de86110b8565b604051601f8201601f19908116603f01168101908382118183101715610e1057610e106110b8565b81604052828152896020848701011115610e2957600080fd5b82602086016020830137600060208483010152809750505050505060208401359150604084013590509250925092565b600060208284031215610e6b57600080fd5b5035919050565b60008060408385031215610e8557600080fd5b50508035926020909101359150565b60028110610eb257634e487b7160e01b600052602160045260246000fd5b9052565b6000815180845260005b81811015610edc57602081850181015186830182015201610ec0565b81811115610eee576000602083870101525b50601f01601f19169290920160200192915050565b6020808252825182820181905260009190848201906040850190845b81811015610f3b57835183529284019291840191600101610f1f565b50909695505050505050565b82815260408101610d646020830184610e94565b85815260a060208201526000610f7460a0830187610eb6565b60408301959095525060608101929092526001600160a01b031660809091015292915050565b86815260c060208201526000610fb360c0830188610eb6565b90508560408301528460608301526001600160a01b0384166080830152610fdd60a0830184610e94565b979650505050505050565b60008219821115610ffb57610ffb61108c565b500190565b600081600019048311821515161561101a5761101a61108c565b500290565b6000828210156110315761103161108c565b500390565b600181811c9082168061104a57607f821691505b6020821081141561106b57634e487b7160e01b600052602260045260246000fd5b50919050565b60006000198214156110855761108561108c565b5060010190565b634e487b7160e01b600052601160045260246000fd5b634e487b7160e01b600052602160045260246000fd5b634e487b7160e01b600052604160045260246000fdfea264697066735822122093ecc6d91a210c3bee8f5ceb37eae4da1c0ebba33dcd5de17705f3cc6caeff6764736f6c63430008070033",
  "immutableReferences": {},
  "source": "// SPDX-License-Identifier: MIT\npragma solidity ^0.8.0;\n\ncontract DrugProcurement {\n    address public owner;\n    uint public totalDrugs;\n    uint public totalPurchases;\n\n    enum DrugStatus { ForSale, NotForSale }\n\n    struct Drug {\n        uint id;\n        string name;\n        uint quantity;\n        uint price;\n        address supplier;\n        DrugStatus status;\n    }\n\n    struct Purchase {\n        uint drugId;\n        uint quantity;\n        address buyer;\n    }\n\n    mapping(uint => Drug) public drugs;\n    mapping(address => uint[]) public supplierDrugs;\n    mapping(uint => Purchase) public purchases;\n    mapping(address => uint[]) public userPurchases;\n\n    event DrugAdded(uint drugId, string name, uint quantity, uint price, address supplier);\n    event DrugStatusUpdated(uint drugId, DrugStatus status);\n    event DrugPurchased(uint purchaseId, uint drugId, uint quantity, address buyer);\n\n    modifier onlyOwner() {\n        require(msg.sender == owner, \"Only the contract owner can perform this action\");\n        _;\n    }\n\n    constructor() {\n        owner = msg.sender;\n        totalDrugs = 0;\n        totalPurchases = 0;\n    }\n\n    function addDrug(string memory _name, uint _quantity, uint _price) external {\n        require(_quantity > 0, \"Quantity must be greater than 0\");\n        require(_price > 0, \"Price must be greater than 0\");\n\n        totalDrugs++;\n        Drug storage existingDrug = drugs[totalDrugs];\n        existingDrug.id = totalDrugs; // Set the ID\n        existingDrug.name = _name;\n        existingDrug.quantity += _quantity;\n        existingDrug.price = _price;\n        existingDrug.supplier = msg.sender;\n        existingDrug.status = DrugStatus.ForSale;\n\n        supplierDrugs[msg.sender].push(totalDrugs);\n\n        emit DrugAdded(totalDrugs, _name, _quantity, _price, msg.sender);\n    }\n\n    function toggleDrugStatus(uint _drugId) external onlyOwner {\n        require(_drugId <= totalDrugs, \"Invalid drug ID\");\n\n        Drug storage drugToUpdate = drugs[_drugId];\n\n        if (drugToUpdate.status == DrugStatus.ForSale) {\n            drugToUpdate.status = DrugStatus.NotForSale;\n        } else if (drugToUpdate.status == DrugStatus.NotForSale) {\n            drugToUpdate.status = DrugStatus.ForSale;\n        }\n\n        emit DrugStatusUpdated(_drugId, drugToUpdate.status);\n    }\n\n    function buyDrug(uint _drugId, uint _quantity) external payable {\n        require(_quantity > 0, \"Quantity must be greater than 0\");\n        require(_drugId <= totalDrugs, \"Invalid drug ID\");\n\n        Drug storage drugToBuy = drugs[_drugId];\n        require(drugToBuy.status == DrugStatus.ForSale, \"Drug is not for sale\");\n        require(drugToBuy.quantity >= _quantity, \"Insufficient quantity available\");\n        require(msg.value == _quantity * drugToBuy.price, \"Incorrect payment amount\");\n\n        totalPurchases++;\n        Purchase storage newPurchase = purchases[totalPurchases];\n        newPurchase.drugId = _drugId;\n        newPurchase.quantity = _quantity;\n        newPurchase.buyer = msg.sender;\n\n        drugToBuy.quantity -= _quantity;\n        userPurchases[msg.sender].push(totalPurchases);\n\n        payable(drugToBuy.supplier).transfer(msg.value); // Send payment to the supplier\n\n        emit DrugPurchased(totalPurchases, _drugId, _quantity, msg.sender);\n    }\n\n    function updateDrugQuantity(uint _drugId, uint _newQuantity) external onlyOwner {\n        require(_drugId <= totalDrugs, \"Invalid drug ID\");\n\n        Drug storage drugToUpdate = drugs[_drugId];\n        require(drugToUpdate.status == DrugStatus.ForSale, \"Cannot update quantity for a drug not for sale\");\n\n        drugToUpdate.quantity = _newQuantity;\n    }\n\n    function getUserPurchases(address _user) external view returns (uint[] memory) {\n        return userPurchases[_user];\n    }\n\n    function getUserSupplies(address _user) external view returns (uint[] memory) {\n        return supplierDrugs[_user];\n    }\n}\n",
  "sourcePath": "/Users/obedovabor/Projects/Blockchain/drug_procurement/contracts/DrugProcurement.sol",
  "compiler": {
    "name": "solc",
    "version": "0.8.7+commit.e28d00a7.Emscripten.clang"
  },
  "schemaVersion": "3.4.11",
  "updatedAt": "2023-08-22T09:09:47.341Z",
  "networkType": "ethereum",
  "devdoc": {
    "kind": "dev",
    "methods": {},
    "version": 1
  },
  "userdoc": {
    "kind": "user",
    "methods": {},
    "version": 1
  }
}