{
  "contractName": "DrugProcurement",
  "abi": [
    {
      "inputs": [],
      "stateMutability": "nonpayable",
      "type": "constructor"
    },
    {
      "anonymous": false,
      "inputs": [
        {
          "indexed": false,
          "internalType": "uint256",
          "name": "drugId",
          "type": "uint256"
        },
        {
          "indexed": false,
          "internalType": "string",
          "name": "name",
          "type": "string"
        },
        {
          "indexed": false,
          "internalType": "uint256",
          "name": "quantity",
          "type": "uint256"
        },
        {
          "indexed": false,
          "internalType": "uint256",
          "name": "price",
          "type": "uint256"
        },
        {
          "indexed": false,
          "internalType": "address",
          "name": "supplier",
          "type": "address"
        }
      ],
      "name": "DrugAdded",
      "type": "event"
    },
    {
      "anonymous": false,
      "inputs": [
        {
          "indexed": false,
          "internalType": "uint256",
          "name": "purchaseId",
          "type": "uint256"
        },
        {
          "indexed": false,
          "internalType": "uint256",
          "name": "drugId",
          "type": "uint256"
        },
        {
          "indexed": false,
          "internalType": "uint256",
          "name": "quantity",
          "type": "uint256"
        },
        {
          "indexed": false,
          "internalType": "address",
          "name": "buyer",
          "type": "address"
        }
      ],
      "name": "DrugPurchased",
      "type": "event"
    },
    {
      "anonymous": false,
      "inputs": [
        {
          "indexed": false,
          "internalType": "uint256",
          "name": "drugId",
          "type": "uint256"
        },
        {
          "indexed": false,
          "internalType": "enum DrugProcurement.DrugStatus",
          "name": "status",
          "type": "uint8"
        }
      ],
      "name": "DrugStatusUpdated",
      "type": "event"
    },
    {
      "inputs": [
        {
          "internalType": "uint256",
          "name": "",
          "type": "uint256"
        }
      ],
      "name": "drugs",
      "outputs": [
        {
          "internalType": "uint256",
          "name": "id",
          "type": "uint256"
        },
        {
          "internalType": "string",
          "name": "name",
          "type": "string"
        },
        {
          "internalType": "string",
          "name": "expiry",
          "type": "string"
        },
        {
          "internalType": "uint256",
          "name": "quantity",
          "type": "uint256"
        },
        {
          "internalType": "uint256",
          "name": "price",
          "type": "uint256"
        },
        {
          "internalType": "address",
          "name": "supplier",
          "type": "address"
        },
        {
          "internalType": "enum DrugProcurement.DrugStatus",
          "name": "status",
          "type": "uint8"
        }
      ],
      "stateMutability": "view",
      "type": "function",
      "constant": true
    },
    {
      "inputs": [],
      "name": "owner",
      "outputs": [
        {
          "internalType": "address",
          "name": "",
          "type": "address"
        }
      ],
      "stateMutability": "view",
      "type": "function",
      "constant": true
    },
    {
      "inputs": [
        {
          "internalType": "uint256",
          "name": "",
          "type": "uint256"
        }
      ],
      "name": "purchases",
      "outputs": [
        {
          "internalType": "uint256",
          "name": "drugId",
          "type": "uint256"
        },
        {
          "internalType": "uint256",
          "name": "quantity",
          "type": "uint256"
        },
        {
          "internalType": "address",
          "name": "buyer",
          "type": "address"
        }
      ],
      "stateMutability": "view",
      "type": "function",
      "constant": true
    },
    {
      "inputs": [
        {
          "internalType": "address",
          "name": "",
          "type": "address"
        },
        {
          "internalType": "uint256",
          "name": "",
          "type": "uint256"
        }
      ],
      "name": "supplierDrugs",
      "outputs": [
        {
          "internalType": "uint256",
          "name": "",
          "type": "uint256"
        }
      ],
      "stateMutability": "view",
      "type": "function",
      "constant": true
    },
    {
      "inputs": [],
      "name": "totalDrugs",
      "outputs": [
        {
          "internalType": "uint256",
          "name": "",
          "type": "uint256"
        }
      ],
      "stateMutability": "view",
      "type": "function",
      "constant": true
    },
    {
      "inputs": [],
      "name": "totalPurchases",
      "outputs": [
        {
          "internalType": "uint256",
          "name": "",
          "type": "uint256"
        }
      ],
      "stateMutability": "view",
      "type": "function",
      "constant": true
    },
    {
      "inputs": [
        {
          "internalType": "address",
          "name": "",
          "type": "address"
        },
        {
          "internalType": "uint256",
          "name": "",
          "type": "uint256"
        }
      ],
      "name": "userPurchases",
      "outputs": [
        {
          "internalType": "uint256",
          "name": "",
          "type": "uint256"
        }
      ],
      "stateMutability": "view",
      "type": "function",
      "constant": true
    },
    {
      "inputs": [
        {
          "internalType": "string",
          "name": "_name",
          "type": "string"
        },
        {
          "internalType": "string",
          "name": "_expiry",
          "type": "string"
        },
        {
          "internalType": "uint256",
          "name": "_quantity",
          "type": "uint256"
        },
        {
          "internalType": "uint256",
          "name": "_price",
          "type": "uint256"
        }
      ],
      "name": "addDrug",
      "outputs": [],
      "stateMutability": "nonpayable",
      "type": "function"
    },
    {
      "inputs": [
        {
          "internalType": "uint256",
          "name": "_drugId",
          "type": "uint256"
        }
      ],
      "name": "toggleDrugStatus",
      "outputs": [],
      "stateMutability": "nonpayable",
      "type": "function"
    },
    {
      "inputs": [
        {
          "internalType": "uint256",
          "name": "_drugId",
          "type": "uint256"
        },
        {
          "internalType": "uint256",
          "name": "_quantity",
          "type": "uint256"
        }
      ],
      "name": "buyDrug",
      "outputs": [],
      "stateMutability": "payable",
      "type": "function",
      "payable": true
    },
    {
      "inputs": [
        {
          "internalType": "uint256",
          "name": "_drugId",
          "type": "uint256"
        },
        {
          "internalType": "uint256",
          "name": "_newQuantity",
          "type": "uint256"
        }
      ],
      "name": "updateDrugQuantity",
      "outputs": [],
      "stateMutability": "nonpayable",
      "type": "function"
    },
    {
      "inputs": [
        {
          "internalType": "address",
          "name": "_user",
          "type": "address"
        }
      ],
      "name": "getUserPurchases",
      "outputs": [
        {
          "internalType": "uint256[]",
          "name": "",
          "type": "uint256[]"
        }
      ],
      "stateMutability": "view",
      "type": "function",
      "constant": true
    },
    {
      "inputs": [
        {
          "internalType": "address",
          "name": "_user",
          "type": "address"
        }
      ],
      "name": "getUserSupplies",
      "outputs": [
        {
          "internalType": "uint256[]",
          "name": "",
          "type": "uint256[]"
        }
      ],
      "stateMutability": "view",
      "type": "function",
      "constant": true
    }
  ],
  "bytecode": "0x608060405234801561001057600080fd5b50600080546001600160a01b0319163317815560018190556002556112058061003a6000396000f3fe6080604052600436106100d25760003560e01c8063b79befff1161007f578063c6e5d8f611610059578063c6e5d8f614610266578063c933e98014610286578063cf2c033414610299578063fca5e61e146102b957600080fd5b8063b79befff146101f9578063be62254614610219578063beaf46271461023957600080fd5b80636762f6b3116100b05780636762f6b3146101385780638392fe31146101585780638da5cb5b146101c157600080fd5b80631685a5ac146100d75780632095a0e4146101005780635962a94114610122575b600080fd5b3480156100e357600080fd5b506100ed60015481565b6040519081526020015b60405180910390f35b34801561010c57600080fd5b5061012061011b366004610f5f565b6102ec565b005b34801561012e57600080fd5b506100ed60025481565b34801561014457600080fd5b506100ed610153366004610ea8565b61046c565b34801561016457600080fd5b5061019d610173366004610f46565b6005602052600090815260409020805460018201546002909201549091906001600160a01b031683565b6040805193845260208401929092526001600160a01b0316908201526060016100f7565b3480156101cd57600080fd5b506000546101e1906001600160a01b031681565b6040516001600160a01b0390911681526020016100f7565b34801561020557600080fd5b50610120610214366004610ed2565b61049d565b34801561022557600080fd5b50610120610234366004610f46565b61065a565b34801561024557600080fd5b50610259610254366004610e86565b6107ff565b6040516100f79190610ff0565b34801561027257600080fd5b50610259610281366004610e86565b61086b565b610120610294366004610f5f565b6108d5565b3480156102a557600080fd5b506100ed6102b4366004610ea8565b610bcc565b3480156102c557600080fd5b506102d96102d4366004610f46565b610be8565b6040516100f79796959493929190611048565b6000546001600160a01b031633146103715760405162461bcd60e51b815260206004820152602f60248201527f4f6e6c792074686520636f6e7472616374206f776e65722063616e207065726660448201527f6f726d207468697320616374696f6e000000000000000000000000000000000060648201526084015b60405180910390fd5b6001548211156103c35760405162461bcd60e51b815260206004820152600f60248201527f496e76616c6964206472756720494400000000000000000000000000000000006044820152606401610368565b6000828152600360205260408120906005820154600160a01b900460ff1660018111156103f2576103f26111a3565b146104655760405162461bcd60e51b815260206004820152602e60248201527f43616e6e6f7420757064617465207175616e7469747920666f7220612064727560448201527f67206e6f7420666f722073616c650000000000000000000000000000000000006064820152608401610368565b6003015550565b6004602052816000526040600020818154811061048857600080fd5b90600052602060002001600091509150505481565b600082116104ed5760405162461bcd60e51b815260206004820152601f60248201527f5175616e74697479206d7573742062652067726561746572207468616e2030006044820152606401610368565b6000811161053d5760405162461bcd60e51b815260206004820152601c60248201527f5072696365206d7573742062652067726561746572207468616e2030000000006044820152606401610368565b6001805490600061054d83611172565b90915550506001805460008181526003602090815260409091209182558651919261057e9290840191880190610d44565b5083516105949060028301906020870190610d44565b50828160030160008282546105a991906110e9565b909155505060048181018390556005820180547fffffffffffffffffffffff000000000000000000000000000000000000000000163360ff60a01b1981169190911790915560008181526020928352604080822060018054825480830184559285529590932001939093555491517fdab68bcf36d669339e88038655bc20d5719efcb16665403cc2d2c36f19b2c1a69261064b929091899188918891906110aa565b60405180910390a15050505050565b6000546001600160a01b031633146106da5760405162461bcd60e51b815260206004820152602f60248201527f4f6e6c792074686520636f6e7472616374206f776e65722063616e207065726660448201527f6f726d207468697320616374696f6e00000000000000000000000000000000006064820152608401610368565b60015481111561072c5760405162461bcd60e51b815260206004820152600f60248201527f496e76616c6964206472756720494400000000000000000000000000000000006044820152606401610368565b6000818152600360205260408120906005820154600160a01b900460ff16600181111561075b5761075b6111a3565b141561077b5760058101805460ff60a01b1916600160a01b1790556107b3565b60016005820154600160a01b900460ff16600181111561079d5761079d6111a3565b14156107b35760058101805460ff60a01b191690555b60058101546040517ff805aaa32f63549f772fadf706d780b1232fe4266817333c630891723c21079e916107f3918591600160a01b900460ff1690611034565b60405180910390a15050565b6001600160a01b03811660009081526004602090815260409182902080548351818402810184019094528084526060939283018282801561085f57602002820191906000526020600020905b81548152602001906001019080831161084b575b50505050509050919050565b6001600160a01b03811660009081526006602090815260409182902080548351818402810184019094528084526060939283018282801561085f576020028201919060005260206000209081548152602001906001019080831161084b5750505050509050919050565b600081116109255760405162461bcd60e51b815260206004820152601f60248201527f5175616e74697479206d7573742062652067726561746572207468616e2030006044820152606401610368565b6001548211156109775760405162461bcd60e51b815260206004820152600f60248201527f496e76616c6964206472756720494400000000000000000000000000000000006044820152606401610368565b6000828152600360205260408120906005820154600160a01b900460ff1660018111156109a6576109a66111a3565b146109f35760405162461bcd60e51b815260206004820152601460248201527f44727567206973206e6f7420666f722073616c650000000000000000000000006044820152606401610368565b8181600301541015610a475760405162461bcd60e51b815260206004820152601f60248201527f496e73756666696369656e74207175616e7469747920617661696c61626c65006044820152606401610368565b6004810154610a569083611101565b3414610aa45760405162461bcd60e51b815260206004820152601860248201527f496e636f7272656374207061796d656e7420616d6f756e7400000000000000006044820152606401610368565b60028054906000610ab483611172565b90915550506002805460009081526005602052604081208581556001810185905591820180547fffffffffffffffffffffffff00000000000000000000000000000000000000001633179055600383018054859290610b14908490611120565b909155505033600090815260066020908152604080832060025481546001810183559185529284200191909155600584015490516001600160a01b0391909116913480156108fc02929091818181858888f19350505050158015610b7c573d6000803e3d6000fd5b50600254604080519182526020820186905281018490523360608201527fa550c63f07a6a05a7fc15ff0be868687c921bcbd671a5414604914ab4c77e1849060800160405180910390a150505050565b6006602052816000526040600020818154811061048857600080fd5b60036020526000908152604090208054600182018054919291610c0a90611137565b80601f0160208091040260200160405190810160405280929190818152602001828054610c3690611137565b8015610c835780601f10610c5857610100808354040283529160200191610c83565b820191906000526020600020905b815481529060010190602001808311610c6657829003601f168201915b505050505090806002018054610c9890611137565b80601f0160208091040260200160405190810160405280929190818152602001828054610cc490611137565b8015610d115780601f10610ce657610100808354040283529160200191610d11565b820191906000526020600020905b815481529060010190602001808311610cf457829003601f168201915b5050505060038301546004840154600590940154929390929091506001600160a01b03811690600160a01b900460ff1687565b828054610d5090611137565b90600052602060002090601f016020900481019282610d725760008555610db8565b82601f10610d8b57805160ff1916838001178555610db8565b82800160010185558215610db8579182015b82811115610db8578251825591602001919060010190610d9d565b50610dc4929150610dc8565b5090565b5b80821115610dc45760008155600101610dc9565b80356001600160a01b0381168114610df457600080fd5b919050565b600082601f830112610e0a57600080fd5b813567ffffffffffffffff80821115610e2557610e256111b9565b604051601f8301601f19908116603f01168101908282118183101715610e4d57610e4d6111b9565b81604052838152866020858801011115610e6657600080fd5b836020870160208301376000602085830101528094505050505092915050565b600060208284031215610e9857600080fd5b610ea182610ddd565b9392505050565b60008060408385031215610ebb57600080fd5b610ec483610ddd565b946020939093013593505050565b60008060008060808587031215610ee857600080fd5b843567ffffffffffffffff80821115610f0057600080fd5b610f0c88838901610df9565b95506020870135915080821115610f2257600080fd5b50610f2f87828801610df9565b949794965050505060408301359260600135919050565b600060208284031215610f5857600080fd5b5035919050565b60008060408385031215610f7257600080fd5b50508035926020909101359150565b60028110610f9f57634e487b7160e01b600052602160045260246000fd5b9052565b6000815180845260005b81811015610fc957602081850181015186830182015201610fad565b81811115610fdb576000602083870101525b50601f01601f19169290920160200192915050565b6020808252825182820181905260009190848201906040850190845b818110156110285783518352928401929184019160010161100c565b50909695505050505050565b82815260408101610ea16020830184610f81565b87815260e06020820152600061106160e0830189610fa3565b82810360408401526110738189610fa3565b9150508560608301528460808301526001600160a01b03841660a083015261109e60c0830184610f81565b98975050505050505050565b85815260a0602082015260006110c360a0830187610fa3565b60408301959095525060608101929092526001600160a01b031660809091015292915050565b600082198211156110fc576110fc61118d565b500190565b600081600019048311821515161561111b5761111b61118d565b500290565b6000828210156111325761113261118d565b500390565b600181811c9082168061114b57607f821691505b6020821081141561116c57634e487b7160e01b600052602260045260246000fd5b50919050565b60006000198214156111865761118661118d565b5060010190565b634e487b7160e01b600052601160045260246000fd5b634e487b7160e01b600052602160045260246000fd5b634e487b7160e01b600052604160045260246000fdfea2646970667358221220769154070ab83a864a9fd1916537be476df151a70ba7e55ca6352359d0e7a23e64736f6c63430008070033",
  "immutableReferences": {},
  "source": "// SPDX-License-Identifier: MIT\npragma solidity ^0.8.0;\n\ncontract DrugProcurement {\n    address public owner;\n    uint public totalDrugs;\n    uint public totalPurchases;\n\n    enum DrugStatus { ForSale, NotForSale }\n\n    struct Drug {\n        uint id;\n        string name;\n        string expiry;\n        uint quantity;\n        uint price;\n        address supplier;\n        DrugStatus status;\n    }\n\n    struct Purchase {\n        uint drugId;\n        uint quantity;\n        address buyer;\n    }\n\n    mapping(uint => Drug) public drugs;\n    mapping(address => uint[]) public supplierDrugs;\n    mapping(uint => Purchase) public purchases;\n    mapping(address => uint[]) public userPurchases;\n\n    event DrugAdded(uint drugId, string name, uint quantity, uint price, address supplier);\n    event DrugStatusUpdated(uint drugId, DrugStatus status);\n    event DrugPurchased(uint purchaseId, uint drugId, uint quantity, address buyer);\n\n    modifier onlyOwner() {\n        require(msg.sender == owner, \"Only the contract owner can perform this action\");\n        _;\n    }\n\n    constructor() {\n        owner = msg.sender;\n        totalDrugs = 0;\n        totalPurchases = 0;\n    }\n\n    function addDrug(string memory _name,string memory _expiry, uint _quantity, uint _price) external {\n        require(_quantity > 0, \"Quantity must be greater than 0\");\n        require(_price > 0, \"Price must be greater than 0\");\n\n        totalDrugs++;\n        Drug storage existingDrug = drugs[totalDrugs];\n        existingDrug.id = totalDrugs; // Set the ID\n        existingDrug.name = _name;\n        existingDrug.expiry = _expiry;\n        existingDrug.quantity += _quantity;\n        existingDrug.price = _price;\n        existingDrug.supplier = msg.sender;\n        existingDrug.status = DrugStatus.ForSale;\n\n        supplierDrugs[msg.sender].push(totalDrugs);\n\n        emit DrugAdded(totalDrugs, _name, _quantity, _price, msg.sender);\n    }\n\n    function toggleDrugStatus(uint _drugId) external onlyOwner {\n        require(_drugId <= totalDrugs, \"Invalid drug ID\");\n\n        Drug storage drugToUpdate = drugs[_drugId];\n\n        if (drugToUpdate.status == DrugStatus.ForSale) {\n            drugToUpdate.status = DrugStatus.NotForSale;\n        } else if (drugToUpdate.status == DrugStatus.NotForSale) {\n            drugToUpdate.status = DrugStatus.ForSale;\n        }\n\n        emit DrugStatusUpdated(_drugId, drugToUpdate.status);\n    }\n\n    function buyDrug(uint _drugId, uint _quantity) external payable {\n        require(_quantity > 0, \"Quantity must be greater than 0\");\n        require(_drugId <= totalDrugs, \"Invalid drug ID\");\n\n        Drug storage drugToBuy = drugs[_drugId];\n        require(drugToBuy.status == DrugStatus.ForSale, \"Drug is not for sale\");\n        require(drugToBuy.quantity >= _quantity, \"Insufficient quantity available\");\n        require(msg.value == _quantity * drugToBuy.price, \"Incorrect payment amount\");\n\n        totalPurchases++;\n        Purchase storage newPurchase = purchases[totalPurchases];\n        newPurchase.drugId = _drugId;\n        newPurchase.quantity = _quantity;\n        newPurchase.buyer = msg.sender;\n\n        drugToBuy.quantity -= _quantity;\n        userPurchases[msg.sender].push(totalPurchases);\n\n        payable(drugToBuy.supplier).transfer(msg.value); // Send payment to the supplier\n\n        emit DrugPurchased(totalPurchases, _drugId, _quantity, msg.sender);\n    }\n\n    function updateDrugQuantity(uint _drugId, uint _newQuantity) external onlyOwner {\n        require(_drugId <= totalDrugs, \"Invalid drug ID\");\n\n        Drug storage drugToUpdate = drugs[_drugId];\n        require(drugToUpdate.status == DrugStatus.ForSale, \"Cannot update quantity for a drug not for sale\");\n\n        drugToUpdate.quantity = _newQuantity;\n    }\n\n    function getUserPurchases(address _user) external view returns (uint[] memory) {\n        return userPurchases[_user];\n    }\n\n    function getUserSupplies(address _user) external view returns (uint[] memory) {\n        return supplierDrugs[_user];\n    }\n}\n",
  "sourcePath": "/Users/obedovabor/Projects/Blockchain/drug_procurement/contracts/DrugProcurement.sol",
  "compiler": {
    "name": "solc",
    "version": "0.8.7+commit.e28d00a7.Emscripten.clang"
  },
  "schemaVersion": "3.4.11",
  "updatedAt": "2023-08-22T13:54:35.755Z",
  "networkType": "ethereum",
  "devdoc": {
    "kind": "dev",
    "methods": {},
    "version": 1
  },
  "userdoc": {
    "kind": "user",
    "methods": {},
    "version": 1
  }
}